:020000040800F2
:10000000000001200D420008950B0008970B000826
:10001000990B00089B0B00089D0B000800000000D6
:10002000000000000000000000000000613F000828
:100030009F0B000800000000F13F00085540000839
:100040005D4200085D4200085D4200085D42000814
:100050005D4200085D4200085D4200085D42000804
:100060005D4200085D4200085D4200085D420008F4
:100070005D4200085D4200085D4200085D420008E4
:100080005D4200085D4200085D4200085D420008D4
:100090005D4200085D4200085D4200085D420008C4
:1000A0005D420008A10B00085D4200085D420008A7
:1000B0005D4200085D4200085D4200085D420008A4
:1000C0005D4200085D4200085D4200085D42000894
:1000D0005D4200085D4200085D4200085D42000884
:1000E0005D4200085D4200085D4200085D42000874
:1000F0005D4200085D4200085D4200085D42000864
:100100005D42000800000000000000005D420008A1
:100110005D4200085D4200085D4200085D42000843
:100120005D4200085D4200085D4200085D42000833
:100130005D4200085D420008000000000000000071
:100140005D4200085D4200085D42000800000000BA
:10015000000000000000000000000000000000009F
:100160005D4200085D4200085D4200085D420008F3
:100170005D4200085D4200085D4200085D420008E3
:100180005D4200085D420008000000000000000021
:040190005D420008C4
:1001A00010B5054C237833B9044B13B10448AFF3B1
:1001B00000800123237010BD10000020000000000B
:1001C0007C42000808B5034B1BB103490348AFF359
:1001D000008008BD00000000140000207C420008E0
:1001E00070B50D4D0D4C641BA4100026A64209D11C
:1001F0000B4D0C4C04F042F8641BA4100026A642E0
:1002000005D170BD55F8043B98470136EEE755F827
:10021000043B98470136F2E7E4450008E44500084E
:10022000E4450008E845000802440346934200D133
:10023000704703F8011BF9E7F8B50E4C05784678CE
:100240002368A3B10C4C0D4F4FF4A07303FB05447E
:10025000002503F059FC3B6801355B6A44F8043B18
:10026000AE42F6D142F2107003F05AFCFAE703F006
:100270004BFCE5E7640100206801002088000020B5
:1002800038B54FF4DC520C46054600210948FFF70B
:10029000CBFF094B1B6800215962084B6160196054
:1002A0002172216028464FF4CB72BDE83840FFF739
:1002B000BBBF00BF6801002088000020640100204F
:1002C0002DE9F04FA94CAA4DEFB000AF64230922ED
:1002D00007F11401204602F043F80028F6D107F197
:1002E000100307F10F0207F10E0107F1140000F0EF
:1002F000E7FA0028EAD1BB7B042BE7D8DFE813F04C
:1003000005006900CB004A01C50107F1140107F19E
:100310002000FFF7B5FF3B7CDFF870A25B000733DE
:1003200003F47E736E46ADEB030D6B46E946D34690
:100330004FF00008397C8F4A41451AD88E4801F0A9
:1003400035FB8E4B01224FF47A701A6003F0E8FB04
:10035000894801F061FB4FF000083B7C43451AD807
:10036000DFF82C924FF000083B7C43451AD8B54685
:10037000ACE7797C03F81880104689F801104946EB
:100380007B6003F094FB08F101084BF8040B7B68D9
:1003900009F10209CEE75AF8040B03F0B0FB08F1AB
:1003A0000108DAE77A7C4B469200002107F1200031
:1003B00000F0BEFA40B94FF47A734FF4CB7207F1F4
:1003C0002001204601F07AFF08F1010809F5A07923
:1003D000CAE707F1140107F12000FFF751FF3B7C4A
:1003E000DFF8A8A15B00073303F47E736E46ADEB24
:1003F000030D6B46E946D3464FF00008397C604A4E
:1004000041452FD85C4801F0D1FA5C4B012241F202
:1004100088301A6003F084FB574801F0FDFA4FF072
:1004200000083B7C43452FD8DFF864914FF000086B
:100430003B7C98459BD27A7C4B469200012107F188
:10044000200000F075FA40B94FF47A734FF4CB7284
:1004500007F12001204601F031FF08F1010809F5FC
:10046000A079E5E7797C03F81880104689F8011037
:1004700049467B6003F01BFB08F101084BF8040BB5
:100480007B6809F10209B9E75AF8040B03F037FB5E
:1004900008F10108C5E707F1140107F12000FFF793
:1004A000EFFE3B7C3748DFF8E4A05B00073303F442
:1004B0007E736E46ADEB030D03F03AFBEB4628600E
:1004C000E94653464FF00008397C2F4A884533D31C
:1004D000294801F06BFA294B01224FF47A701A6017
:1004E00003F01EFB244801F097FA4FF000083B7C14
:1004F000984533D32868DFF8989003F072FB4FF0EB
:1005000000083B7C9845BFF432AF7A7C4B469200A2
:10051000022107F1200000F00BFA40B94FF47A7382
:100520004FF4CB7207F12001204601F0C7FE08F11D
:10053000010809F5A079E4E7797C0BF818801046EA
:1005400089F8011049467B6003F0B1FA7B6808F135
:10055000010843F8040B09F10209B5E75AF8040B46
:1005600003F0CDFA08F10108C1E700BFD400002074
:100570005C0100200C43000888000020640100207A
:100580007C43000804430008604300082C0000205E
:100590006801002007F1140107F12000FFF770FE49
:1005A00000214148DFF82881404E03F01CFB07F191
:1005B0001001C8F800003E4803F079FA07F1100175
:1005C00030603C4803F073FA70603B4801F0EEF98C
:1005D0003A4B01224FF47A701A6003F0A1FA3648C0
:1005E00001F01AFA306803F08AFA706803F087FAAB
:1005F000D8F8000003F069FB3A7C314B92000321EC
:1006000007F1200000F094F940B94FF47A734FF4E9
:10061000CB7207F12001204601F050FE3A7C294BB5
:100620009200032107F1200000F082F940B94FF455
:100630007A734FF4CB7207F12001204601F03EFEA1
:10064000214B0122032107F1200000F071F940B98C
:100650004FF47A734FF4CB7207F12001204601F07A
:100660002DFE1A4B0122032107F1200000F060F952
:1006700000287FF42BAE4FF47A734FF4CB7207F15E
:100680002001204601F01AFE20E607F110030022A7
:10069000042107F1200000F04BF900287FF416AE8A
:1006A00064230A22EBE700BFF44200082C0000207C
:1006B000444300082843000888000020640100200B
:1006C00068010020A8020020E8030020280500207F
:1006D000600100202DE9F843164C07782368FBB130
:1006E000DFF85880144D0024D8F80030DFF850901F
:1006F0005B6A45F8243005EB840656F8041BD9F8EC
:1007000000004FF0FF32013403F07FFA58B903F0D4
:10071000FBF9A742E8DC42F2107003F001FAFAE7B5
:1007200003F0F2F9DAE7D5F880320133C5F8803208
:10073000E3E700BF6401002068010020880000207A
:10074000600100202DE9F043194C067885B023683C
:1007500023B3184FDFF86090DFF860800024396819
:100760004FF0FF3201A803F078FA019B102B18D14B
:1007700059F82430029A9A4213D1D8F80030651CF7
:1007800050345B6A49F8243003F0BEF92C46B44279
:10079000E5DB42F2107003F0C3F9FAE703F0B4F9B5
:1007A000D5E7D9F8C0330133C9F8C033EFE700BF4C
:1007B0006401002060010020680100208800002002
:1007C0002DE9F041144C0578477823680BB3134C9E
:1007D000134EDFF850804FF4A07303FB054400254F
:1007E0004FF0FF31306803F0AAF9D8F800305B6AA7
:1007F00044F8043B03F088F90135306803F0C4F98C
:1008000003F082F9AF42EBD142F2107003F088F9A5
:10081000FAE703F079F9D8E76401002068010020C5
:100820005C01002088000020F8B5184D0478467857
:100830002B683BB3164B174A1D684FF4A0736343F4
:10084000686AD050D1186B6A4B6050210123614314
:10085000CF18686A52F82740041BB4F5967F81BF11
:100860005C1C6418023342F824008ABFCC1842F89A
:10087000270042F82400B342EADB42F2107003F092
:100880004FF9FAE703F040F9D2E700BF6401002016
:10089000880000206801002010B5084C01444FF684
:1008A000FF72884201D1104610BD10F8013B534041
:1008B000DBB234F8133083EA1222F2E798430008DF
:1008C0002DE9F8431F460378FF2B04468846164659
:1008D00022D190F80190B9F1040F20D88278042A2F
:1008E00020D8D11CC9B2FFF7D7FFB4F807506DBAB2
:1008F000ADB2854219D188F8009014F8023F3370E8
:10090000002133788B4202DC0020BDE8F88314F824
:10091000013F7B540131F4E74FF0FF30F5E76FF012
:100920000200F2E76FF00300EFE76FF00100ECE781
:10093000B2F5C87F38B504461AD8FF20207020468B
:100940006170110AA17000F8032F00218A420ADCAD
:10095000111D2046FFF7A0FF030A84F8950184F8D3
:100960009431002038BD5D5C00F8015F0131EDE796
:100970006FF00300F6E7000010B5A6B024220021B6
:1009800007A8FFF751FC1422002101A8FFF74CFC37
:100990005822002110A8FFF747FC1023012202244F
:1009A000CDE909234FF400414FF4E01306A8CDE947
:1009B0000D1306940C9400F0C5F908B172B6FEE769
:1009C0000F23CDE901344FF48063CDE90430039067
:1009D000214601A800F078FC08B172B6FEE7064B8C
:1009E00013901E9010A8109300F068FD08B172B625
:1009F000FEE726B010BD00BF0200100080B58EB02B
:100A000000F07CF9FFF7B8FF1422002107A8FFF7D8
:100A10000BFC4E4B5A6942F400225A615A6902F4A7
:100A200000220092009A5A6942F480025A615A697F
:100A300002F480020192019A5A6942F400325A612A
:100A40005A6902F400320292029A5A6942F48022F0
:100A50005A615B6903F480230393002220214FF045
:100A600090400024039B00F041FF4FF400524FF4EC
:100A700004133748099407A9CDE90723202600F07D
:100A800063FE012307A94FF09040CDE90763CDE94C
:100A9000094400F059FE2F482F4904614FF41643D2
:100AA000C0E900130C23C0E90244C0E90534C0E9E1
:100AB0000744446201F021FD044608B172B6FEE726
:100AC000264D0146102207A8FFF7AEFB4FF08043EA
:100AD000C5E9003428464FF0FF33CDE90444C5E9A9
:100AE00003340694AC60AC6101F002F908B172B64F
:100AF000FEE74FF4805307A92846079301F032F927
:100B000008B172B6FEE70490069004A9284601F0E9
:100B1000C5F9074608B172B6FEE72846104D00F049
:100B200045FF31464FF0904000F0E5FE0FCD07AC99
:100B30000FC495E8070084E80700394607A802F0CB
:100B4000B6FF084B186002F0ADFFFEE70010024050
:100B500000080048D4000020004400408800002025
:100B600094420008840000200268034B9A4201D19D
:100B700000F0D6B8704700BF002C0140034B036063
:100B8000034B0B6040231360704700BFE81D00203B
:100B9000E81C0020FEE7FEE7FEE7FEE7FEE7704701
:100BA000014800F08BBF00BF401E00200D4B9A692A
:100BB00042F001029A619A6982B002F00102009249
:100BC000009ADA6942F08052DA61DB6903F08053FF
:100BD0000193019B00220F216FF0010002B000F091
:100BE000A5BE00BF001002400368B3F1804F82B081
:100BF0000AD103F50433DA6942F00102DA61DB69F4
:100C000003F001030193019B02B0704710B5044645
:100C100088B01422002103A8FFF706FB2268124BBC
:100C20009A421ED103F5E63303A9DA6942F4003291
:100C3000DA61DA6902F400320192019A5A6942F4E7
:100C400000325A615B6903F400330293029B0C2269
:100C50000223CDE903234FF090400723079300F0D0
:100C600073FD08B010BD00BF004400401E4B70B5BE
:100C70009A691E4D42F400629A619B6988B003F440
:100C8000006301A90293064603A8029B00F0F8FB4B
:100C900000F0DEFB164B2B6040F2E733EB60154BA8
:100CA000B0FBF3F001380023686028462B61AB608D
:100CB000AB6101F01DF8044680B9284600F0C0FE83
:100CC000044658B9192000F063FE0F2E09D82246B9
:100CD0003146192000F02AFE074B1E60204608B05E
:100CE00070BD0124FAE700BF00100240401E002042
:100CF000002C014040420F0004000020074A08B5C4
:100D0000136843F010031360032000F0FDFD0F2073
:100D1000FFF7ACFFFFF74AFF002008BD00200240AC
:100D2000034A044B11681B780B441360704700BFE3
:100D30008C1E002000000020014B1868704700BF87
:100D40008C1E00202DE9F7430546002838D00368A3
:100D5000DF0711D42B689E0700F18B802B681C07DE
:100D600000F1FE802B68580700F14C81A86900282B
:100D700040F0DA81002047E0A04C636803F00C03E8
:100D8000042B0AD0636803F00C03082B1AD16368A4
:100D900003F4C033B3F5803F14D14FF4003393FA1A
:100DA000A3F2216893FAA3F3B3FA83F303F01F03CA
:100DB000012202FA03F30B42CCD06B68002BC9D19D
:100DC000012021E06B68B3F5803F20D1236843F414
:100DD00080332360FFF7B0FF4FF4003706464FF033
:100DE000010897FAA7F3226897FAA7F3B3FA83F3F7
:100DF00003F01F0308FA03F31342ABD1FFF79CFF84
:100E0000831B642BEDD9032003B0BDE8F0830BBB3B
:100E1000236823F480332360236823F48023236032
:100E2000FFF78AFF4FF4003706464FF0010897FAA4
:100E3000A7F3226897FAA7F3B3FA83F303F01F032B
:100E400008FA03F3134285D0FFF776FF831B642B68
:100E5000EDD9D8E7B3F5A02F236803D143F480235D
:100E60002360B3E723F480332360236823F48023D3
:100E7000AFE7624C636813F00C0F0AD0636803F0AD
:100E80000C03082B24D1636803F4C033B3F5004F7F
:100E90001ED1022393FAA3F2216893FAA3F3B3FAC3
:100EA00083F303F01F03012202FA03F30B4202D083
:100EB000EB68934284D12168F82393FAA3F3B3FA41
:100EC00083F22B69934021F0F8021343236045E736
:100ED000EA6801260AB396FAA6F3B3FA83F303F19C
:100EE000845303F584139B004FF002081E60FFF744
:100EF00023FF074698FAA8F3226898FAA8F3B3FAF2
:100F000083F303F01F0306FA03F31342D3D1FFF771
:100F100013FFC31B022BEDD975E796FAA6F3B3FABC
:100F200083F303F1845303F584139B004FF002080D
:100F30001A60FFF701FF074698FAA8F3226898FAAB
:100F4000A8F3B3FA83F303F01F0306FA03F3134283
:100F50003FF404AFFFF7F0FEC31B022BECD952E7BE
:100F60006A69264E264901241AB394FAA4F3B3FA07
:100F700083F30B449B0002271C60FFF7DDFE8046D5
:100F800097FAA7F397FAA7F397FAA7F3726A97FA73
:100F9000A7F3B3FA83F303F01F0304FA03F3134236
:100FA0007FF4E0AEFFF7C8FEA0EB0803022BE7D901
:100FB00029E794FAA4F3B3FA83F30B449B000227C6
:100FC0001A60FFF7B9FE804697FAA7F397FAA7F3DE
:100FD00097FAA7F3726A97FAA7F3B3FA83F303F0C9
:100FE0001F0304FA03F313423FF4BCAEFFF7A4FE61
:100FF000A0EB0803022BE7D905E700BF0010024071
:1010000020819010984CE369D90033D4E36943F010
:101010008053E361E36903F080530193019B012650
:10102000924F3B68DA0527D5AB68012B35D1236A8F
:1010300043F001032362FFF77FFE022780464FF053
:10104000010997FAA7F397FAA7F3002B64D0226A55
:1010500097FAA7F3B3FA83F303F01F0309FA03F334
:10106000134250D0002E3FF481AEE36923F0805349
:10107000E3617BE60026D3E73B6843F480733B6083
:10108000FFF75AFE80463B68DB05CDD4FFF754FEE0
:10109000A0EB08006428F6D9B5E633BB236A23F039
:1010A00001032362236A23F004032362FFF744FE53
:1010B000022780464FF0010997FAA7F397FAA7F3A2
:1010C00073B3226A97FAA7F3B3FA83F303F01F030B
:1010D00009FA03F31342C5D0FFF72EFE41F288331D
:1010E000A0EB08009842E7D98DE6052B236A03D1CF
:1010F00043F0040323629AE723F001032362236A87
:1011000023F0040396E7FFF717FE41F28833A0EBC4
:101110000800984295D976E697FAA7F3626A97E7AE
:1011200097FAA7F3626ACDE74F4C636803F00C03AC
:10113000082B00F0818002284FF0807357D193FA7A
:10114000A3F3B3FA83F303F1845303F584139B00F1
:1011500000221A60FFF7F0FD4FF0007807460126E5
:1011600098FAA8F3226898FAA8F3B3FA83F303F085
:101170001F0306FA03F3134233D1E36A6A6A23F0CA
:101180000F031343E362D5E9071362680B4322F4AC
:101190007612134363604FF0807393FAA3F3B3FAAC
:1011A00083F303F1845303F584139B0001271E602E
:1011B000FFF7C2FD4FF00076054696FAA6F32268C7
:1011C00096FAA6F3B3FA83F303F01F0307FA03F3C7
:1011D00013427FF4CFADFFF7AFFD401B0228ECD9DF
:1011E00011E6FFF7A9FDC31B022BB9D90BE693FA51
:1011F000A3F3B3FA83F303F1845303F584139B0041
:1012000000221A60FFF798FD4FF00076054601278F
:1012100096FAA6F3226896FAA6F3B3FA83F303F0DC
:101220001F0307FA03F313423FF4A4ADFFF784FD55
:10123000401B0228ECD9E6E501283FF4E5AD6368E0
:10124000E969E26A03F4C03088427FF4B9AD296AE3
:1012500003F470138B427FF4B3AD02F00F036A6A9C
:1012600093423FF487ADABE50010024000700040B0
:1012700011494B6803F00C02082A1AD14FF470127E
:1012800092FAA2F20F20B2FA82F2C96A90FAA0F0A2
:1012900003F47013D340094AB0FA80F001F00F0153
:1012A000D35CC1400648415C0648B0FBF1F05843AE
:1012B00070470448704700BF00100240A345000873
:1012C000B345000800127A002DE9F0410D460446AE
:1012D00010B90120BDE8F0814C4A136803F0070300
:1012E0008B422ED32268910736D4D2073CD4474A8A
:1012F000136803F00703AB4274D82268444D12F020
:10130000040F7BD1130706D56B68226923F4605361
:1013100043EAC2036B60FFF7ABFF6B68F02292FAFF
:10132000A2F2B2FA82F203F0F003D340394AD35C5E
:10133000D840394B1860394B1868FFF797FC0020EC
:10134000C8E7136823F007030B431360136803F027
:1013500007038B42BDD1C5E72D49A0684B6823F038
:10136000F00303434B60C0E76268294E012A26D18F
:101370004FF4003393FAA3F1316893FAA3F3B3FA6D
:1013800083F303F01F0302FA03F30B42A1D0736847
:1013900023F003031A437260FFF7CEFC41F2883852
:1013A00007467368626803F00C03B3EB820F9ED0AC
:1013B000FFF7C2FCC01B4045F3D903208AE7022A8D
:1013C0000CBF4FF00073022393FAA3F1306893FA35
:1013D000A3F3B3FA83F303F01F03012101FA03F32C
:1013E0000342D3E7136823F007032B43136013680A
:1013F00003F00703AB427FF46CAF7EE76B68E168F4
:1014000023F4E0630B436B607CE700BF00200240E5
:1014100000100240C645000808000020040000201B
:10142000084B4FF4E0625B6892FAA2F2B2FA82F2E1
:1014300003F4E063D340044AD35C044A1068D84004
:10144000704700BF00100240D64500080800002089
:10145000084B4FF460525B6892FAA2F2B2FA82F241
:1014600003F46053D340044AD35C044A1068D84064
:10147000704700BF00100240D64500080800002059
:101480000F2303600B4B5A6802F0030242605A6854
:1014900002F0F00282605A6802F4E062C2605B68A7
:1014A000DB0803F4E0630361034B1B6803F00703ED
:1014B0000B607047001002400020024003682DE9D5
:1014C000F743D903044623D59A4DEB69DA0000F1BE
:1014D000D980EB6943F08053EB61EB6903F08053F3
:1014E0000193019B0126944F3B68DB0540F1CC80C2
:1014F0002B6A13F4407340F0DC802B6A626823F49B
:10150000407313432B621EB1EB6923F08053EB61F0
:101510002368DA0706D58749A0680A6B22F0030220
:1015200002430A639F0706D58249E0680A6B22F4EA
:10153000403202430A635E0706D57E4920690A6B82
:1015400022F4402202430A639D0606D57949E069E8
:101550000A6B22F0100202430A63980306D575490C
:10156000606D4A6822F4800202434A60590606D53B
:101570007049206A0A6B22F0200202430A635A0370
:1015800006D56C49606A0A6B22F0400202430A6386
:101590001F0706D5674960690A6B22F440120243AF
:1015A0000A63DE0606D56349A0690A6B22F440028D
:1015B00002430A639D0506D55E49206B4A6822F402
:1015C000000202434A60180606D55A49A06ACA6A50
:1015D00022F4F8720243CA62D90506D55549E06A79
:1015E000CA6A22F478520243CA62DA0406D5514923
:1015F000606B0A6B22F4807202430A639F0406D573
:101600004C49206C0A6B22F4007202430A63DE022A
:1016100006D54849A06B0A6B22F0807202430A6328
:101620009D0206D54349E06B0A6B22F0007202432B
:101630000A63580206D53F49606C0A6B22F4806247
:1016400002430A63190206D53A49A06C0A6B22F4D8
:10165000006202430A63DA0106D53649E06C0A6B80
:1016600022F4005202430A6313F000731FBF314A91
:10167000216D136B23F400431DBF0B431363002044
:10168000184613E000262EE73B6843F480733B6066
:10169000FFF752FB80463B68D8053FF529AFFFF7BF
:1016A0004BFBA0EB08006428F5D9032003B0BDE88C
:1016B000F083626802F440729A423FF41EAF296AD6
:1016C0004FF4803321F4407093FAA3F2DFF86CC03A
:1016D000B2FA82F2624492000127176093FAA3F3F0
:1016E000B3FA83F363449B000022C9071A6028629F
:1016F0007FF503AFFFF720FB4FF00208814698FA11
:10170000A8F398FAA8F3DBB12A6A98FAA8F3B3FA17
:1017100083F303F01F0307FA03F313427FF4EDAEE4
:10172000FFF70AFB41F28833A0EB09009842E6D9A3
:10173000BBE700BF00100240007000400081901025
:1017400098FAA8F36A6AE0E72DE9F74FDFF8989175
:10175000634C00230A6832FA03F502D103B0BDE8F6
:10176000F08F4FF0010E0EFA03FE1EEA020200F0A7
:10177000A9804E6806F003054FEA43084FF0030CBA
:101780006F1E0CFA08FC012F6FEA0C0C34D8876826
:1017900007EA0C0ACF6807FA08F747EA0A078760E2
:1017A000476827EA0E0EC6F300179F4047EA0E0768
:1017B0004760C76807EA0C0E8F6807FA08F747EA20
:1017C0000E07022DC76019D14FEAD30A00EB8A0A2F
:1017D00003F0070BDAF820704FEA8B0B4FF00F0E77
:1017E0000EFA0BFE27EA0E0E0F6907FA0BF747EA0F
:1017F0000E07CAF8207001E0032DDAD1076805FA58
:1018000008F507EA0C072F4316F4403F076059D04C
:10181000D9F8185045F00105C9F81850D9F81850F2
:1018200023F0030707F1804705F0010507F580372E
:10183000019503F0030E019DBD684FEA8E0E4FF037
:101840000F0C0CFA0EFCB0F1904F25EA0C0C3BD0BB
:10185000244DA8423AD005F58065A84238D005F558
:101860008065A84236D005F58065A84234D005F5DC
:101870008065A84232D005F58065A8420CBF0625D8
:10188000072505FA0EF545EA0C05BD60A568D743A6
:1018900016F4801F0CBF3D401543A560E56816F4A3
:1018A000001F0CBF3D401543E560656816F4003F1E
:1018B0000CBF3D40154365602568F60354BF3D40AD
:1018C00015432560013345E70025DAE70125D8E710
:1018D0000225D6E70325D4E70425D2E70525D0E77E
:1018E0000004014000040048001002400AB1816178
:1018F000704781627047436901EA030221EA0301EC
:1019000041EA0241816170470749CA6822F4E062F6
:101910000302120403F4E063120C134343F0BF63A9
:1019200043F40033CB60704700ED00E0164B30B558
:10193000DC68C4F30224C4F10705231D042D28BF6D
:101940000425062B4FF0FF338CBF033C002403FA21
:1019500005F521EA0501A34022EA0302A14000287F
:1019600041EA0203ACBF00F16040084A4FEA0313AA
:10197000B8BF00F00F00DBB2AABF00F561401354FE
:1019800080F8003330BD00BF00ED00E014ED00E052
:10199000002808DB4209012300F01F0003FA00F0D1
:1019A000014B43F82200704700E100E090F83D3021
:1019B000012B2BD10223164A80F83D300368934255
:1019C00016D0B3F1804F13D0A2F5943293420FD0CA
:1019D00002F5806293420BD002F59632934207D013
:1019E00002F54062934203D002F58052934207D140
:1019F0009968084A0A40062A06D0B2F5803F03D00B
:101A00001A6842F001021A600020704701207047F6
:101A1000002C0140070001000368196A41F211120D
:101A2000114208D1196A40F24442114202BF1A68B9
:101A300022F001021A60012380F83D300020704737
:101A400090F83D30012B2FD1022380F83D30036800
:101A5000DA6842F00102DA60144A934216D0B3F118
:101A6000804F13D0A2F5943293420FD002F58062DA
:101A700093420BD002F59632934207D002F54062B2
:101A8000934203D002F58052934207D19968084AE5
:101A90000A40062A06D0B2F5803F03D01A6842F009
:101AA00001021A600020704701207047002C01409D
:101AB00007000100704770477047704703681A6954
:101AC000910710B504460FD5DA6892070CD56FF070
:101AD00002021A61012202779B69990700F0858052
:101AE000FFF7E9FF0023237723681A69520710D50F
:101AF000DA6850070DD56FF004021A6102222277CE
:101B00009B6913F4407F204675D0FFF7D4FF002374
:101B1000237723681A6911070FD5DA6812070CD5E5
:101B20006FF008021A6104222277DB699B072046C6
:101B300067D0FFF7C0FF0023237723681A69D00618
:101B400010D5DA68D1060DD56FF010021A6108229F
:101B50002277DB6913F4407F204658D0FFF7ABFFB4
:101B60000023237723681A69D20708D5DA68D007DB
:101B700005D56FF001021A612046FEF7F5FF2368D4
:101B80001A69110608D5DA68120605D56FF08002C9
:101B90001A61204600F0CDF923681A69D00508D5EE
:101BA000DA68110605D56FF480721A61204600F0DC
:101BB000C1F923681A69520608D5DA68500605D5B6
:101BC0006FF040021A612046FFF777FF23681A6919
:101BD000910622D5DA6892061FD56FF020022046C2
:101BE0001A61BDE8104000F0A3B9FFF763FF20467B
:101BF000FFF762FF76E7FFF75DFF2046FFF75CFF28
:101C000085E7FFF757FF2046FFF756FF93E7FFF7FB
:101C100051FF2046FFF750FFA2E710BD324A03688C
:101C2000904212D0B0F1804F0FD0A2F59432904282
:101C30000BD002F58062904207D002F596329042B6
:101C400003D002F5E052904215D14A6823F07003A8
:101C50001343254A90421DD0B0F1804F1AD0A2F50F
:101C60009432904216D002F58062904212D002F572
:101C7000963290420ED01D4A90420BD002F58062FF
:101C8000904207D002F58062904203D002F50062D4
:101C9000904203D1CA6823F4407313434A6923F086
:101CA0008003134303608B68C3620B6883620E4B2F
:101CB000984213D003F5006398420FD003F54063B8
:101CC00098420BD003F58063984207D003F58063F8
:101CD000984203D003F50063984201D10B69036376
:101CE00001234361704700BF002C014000400140C8
:101CF00010B5044650B390F83D3003F0FF021BB915
:101D000080F83C20FEF770FF0223206884F83D3005
:101D1000211DFFF783FF012384F84830002084F859
:101D20003E3084F83F3084F8403084F8413084F805
:101D3000423084F8433084F8443084F8453084F8E5
:101D4000463084F8473084F83D3010BD0120FCE770
:101D500010B58468114324F47F4441EA03232343EC
:101D6000836010BD70B590F83C30012B04464FF0F5
:101D7000020300F08F80012280F83D3080F83C2083
:101D80000068454B85682B4083600B68602B52D000
:101D900033D8402B67D016D8202B0DD00AD833F07B
:101DA000100109D0012384F83D30002384F83C3031
:101DB000104670BD302BF5D1826822F070021343BB
:101DC00043F0070317E0502BECD14A68CE68016A54
:101DD000056A25F001050562836921F00A0123F0F7
:101DE000F00343EA06130A4383610262836823F027
:101DF000700343F05703836011E0B3F5805F0ED0AA
:101E0000B3F5005F0DD0702BCCD1CB68D1E90121A7
:101E1000FFF79EFF2268936843F0770393600022E8
:101E2000C0E7CB68D1E90121FFF792FF22689368F0
:101E300043F48043F2E74D68CE68016A21F0100157
:101E400001628269036A22F4704223F0A00343EA2C
:101E5000051342EA063282610362836823F070034D
:101E600043F06703C7E74A68CE68016A056A25F050
:101E700001050562836921F00A0123F0F00343EABA
:101E800006130A4383610262836823F0700343F000
:101E90004703B0E71A468BE78800FEFF30B590F89D
:101EA0003C30012B4FF002033DD080F83D301F4DF8
:101EB0000368AB425A689C6807D005F50065AB42E1
:101EC00003D005F5E055AB4203D14D6822F4700212
:101ED0002A430D6822F070022A435A60134A934243
:101EE00016D0B3F1804F13D0A2F5943293420FD0A5
:101EF00002F5806293420BD002F59632934207D0EE
:101F000002F54062934203D002F58052934204D11D
:101F1000896824F080020A439A60012380F83D30EA
:101F2000002380F83C30184630BD00BF002C014033
:101F3000704770477047026852E8003F23F490737F
:101F400042E8003102680029F5D102F1080353E8A4
:101F5000003F23F0010302F1080C4CE80031002996
:101F6000F3D1036E012B07D152E8003F23F0100399
:101F700042E800310029F7D12023C0F88030002347
:101F8000036683667047000038B50446C06921695E
:101F9000A26823680A4361691D680A4372490243C3
:101FA00029400A431A605A68E168256A22F44052BF
:101FB0000A435A609968A26921F430612A430A43AE
:101FC0009A606A4A934215D1694B1B6B03F0030375
:101FD000013B022B00F2A080664AB0F5004FD35CB3
:101FE0007CD1082B19D8DFE803F05B9A6318A61898
:101FF00018186400604A934219D15D4B1B6B03F4BF
:102000004033B3F5003F00F08D8008D8002B00F07E
:102010009580B3F5803F00F08B80012044E0B3F55C
:10202000403FFAD1B0F5004F42D054488DE0544AB9
:1020300093420FD14E4B1B6B03F44023B3F5002F9B
:1020400070D004D8002B79D0B3F5802FE3E7B3F537
:10205000402FE6E74B4A93420FD1454B1B6B03F4ED
:102060004013B3F5001F5DD004D8002B66D0B3F544
:10207000801FD0E7B3F5401FD3E7434A9342CCD14A
:102080003B4B1B6B03F44003B3F5000F4AD004D85D
:10209000002B53D0B3F5800FBDE7B3F5400FC0E779
:1020A000FFF7BEF928B900200023C4E91A3338BD70
:1020B00032486268530803EB40004FF6EF73B0FB01
:1020C000F2F0A0F110029A42A7D820F00F03226884
:1020D0009BB2C0F342001843D060E4E7082B9CD8C1
:1020E00001A252F823F000BF432100080D2100088F
:1020F0002B2000081B200008132100081B200008CB
:102100001B2000081B2000082B210008FFF7A0F966
:1021100019E0FFF7ADF816E0B0F5004FF6D1FFF784
:1021200097F9BFE7B0F5004FC3D04FF400400CE083
:10213000B0F5004FEDD1FFF79BF8B3E7B0F5004FD6
:10214000AED0FFF76DF90028ADD0626800EB520306
:10215000B3FBF2F34FF6EF72A3F1100191423FF699
:102160005CAF2268D3609EE7F369FFEF003801405F
:1021700000100240C34500080044004000127A00ED
:1021800000480040004C004000500040436ADA071D
:1021900010B506D50168846A4A6822F400322243E9
:1021A0004A609C0706D50168C46A4A6822F48032F6
:1021B00022434A60590706D50168046B4A6822F435
:1021C000802222434A601A0706D50168446B4A6898
:1021D00022F4004222434A60DC0606D50168846B83
:1021E0008A6822F4805222438A60990606D50168E3
:1021F000C46B8A6822F4005222438A605A060FD5C3
:102200000168046C4A6822F480122243B4F5801FEE
:102210004A6005D14A68446C22F4C00222434A60F5
:102220001B0606D50268816C536823F400230B4318
:10223000536010BD2DE9F843DDF8209004460F46A9
:10224000164698462268D36937EA03030CBF012378
:102250000023B34201D000201EE0B9F1FF3FF2D0CD
:10226000FEF76AFDA0EB0800484525D8B9F1000F3C
:1022700022D0206803685A07E4D5C56915F008051F
:102280000CD0082505622046FFF755FE0023C4F850
:10229000845084F878300120BDE8F883C3691B05B9
:1022A000D0D54FF4006303622046FFF744FE20239D
:1022B000C4F8843084F878500320EDE72DE9FF411D
:1022C0009846C36F202B04460E46174644D100297A
:1022D00044D0002A42D021230025C0F88450C3678F
:1022E000FEF72AFDA268A4F85070B2F5805F03469D
:1022F000A4F8527003D122690AB935461646B4F8DB
:102300005220CDF8008092B24AB940212046FFF712
:1023100091FF2023E36760B904B0BDE8F08100229B
:10232000802120460393FFF785FF039B18B12023EC
:10233000E3670320F0E721685EB935F8022BC2F3AA
:1023400008020A85B4F85220013A92B2A4F8522049
:10235000D5E716F8012BF4E70220DDE70120DBE7E3
:102360002DE9F7431F46D0F88030202B04460D4658
:10237000164663D1002963D0002A61D022234FF092
:102380000008C0F88480C0F88030C0F86080FEF794
:10239000D3FCA368A4F85860B3F5805F8146A4F825
:1023A0005A6018D12269A2B940F2FF12A4F85C2049
:1023B000B3F5805FB4F85C801ED12369E3B92E4683
:1023C0001D46B4F85A2090B2C0B92023C4F880301A
:1023D00020E0FF22EAE723B92269002AF9D07F2210
:1023E000E4E7B3F1805F04D12269002AF7D03F22ED
:1023F000DCE7A4F85C80DBE70026E2E700974B46C9
:10240000002220212046FFF715FF30B12023C4F819
:102410008030032003B0BDE8F08323689B8C08EA7A
:10242000030345B926F8023BB4F85A20013A92B2A8
:10243000A4F85A20C5E705F8013BF5E70220E9E7D3
:102440000120E7E730B50446002585B0C0F8845088
:10245000FEF772FC22681268110703461BD56FF065
:102460007E42009203902A464FF400112046FFF767
:10247000E1FE039B78B1216851E8003F23F080031F
:1024800041E80032002AF6D12023E36784F878205F
:10249000032005B030BD22681268520723D56FF0C3
:1024A0007E4200924FF4800100222046FFF7C2FED8
:1024B000C8B1226852E8003F23F4907342E800302C
:1024C00021680028F5D101F1080353E8003F23F00B
:1024D000010301F1080040E80032002AF3D1202373
:1024E000C4F88030D2E700202023E36784F8780026
:1024F000C4F8803020666066CBE710B5044640B370
:10250000C36F1BB980F87830FEF780FB2268242364
:10251000E367136823F0010313602046FFF734FDDF
:10252000012816D0636A13B12046FFF72FFE2368F7
:102530005A6822F490425A609A6822F02A029A60FD
:102540001A6842F0010220461A60BDE81040FFF709
:1025500079BF012010BD0000034AD2F8883043F44F
:102560007003C2F88830704700ED00E000F1080306
:102570004FF0FF32C0E90223436003610023036090
:10258000704700230361704743684B609A688A6014
:102590009A6851609960036808610133036070476D
:1025A00030B50C68631C0AD103695A684A609160AF
:1025B0008B605960036808610133036030BD00F12E
:1025C0000802134652681568A542FAD9EDE7D0E92A
:1025D000011203698A6051605968814208BF5A60DC
:1025E000002202611A68013A1A601868704710B533
:1025F000044601F0C7FCA46B01F0E4FCB4FA84F0DB
:10260000400910BDF8B51546026C866B044652B9F8
:10261000076847BB406801F08BF9676005460136E3
:10262000A6632846F8BD65B9806801F018FEA36866
:10263000226C13446268A3609342F0D32368A360C2
:10264000EDE7C06801F00BFE226CE36851429B1A73
:102650002268E36093423EBF63685B18E360022D2B
:1026600001D116B1013E0025D9E73546D7E703462B
:1026700010B41A6C08466AB1DC68596814448C427C
:1026800028BF1968DC6028BFD960D9685DF8044BA1
:1026900001F0E5BD5DF8044B704770B5044601F0EC
:1026A00071FC94F8455004F124066DB2002D14DC41
:1026B000FF2384F8453001F085FC01F063FC94F8B9
:1026C000445004F110066DB2002D12DCFF2384F893
:1026D0004430BDE8704001F075BC636A002BE7D060
:1026E000304601F02FF808B101F0B8F8013D6DB2A5
:1026F000DCE72369002BE9D0304601F023F808B16C
:1027000001F0ACF8013D6DB2DEE738B50D46044688
:1027100040B94FF0500383F31188BFF36F8FBFF3BD
:102720004F8FFEE701F02EFCD4E90F312268A26042
:102730004B43D0185B1A13446060E3600020FF2312
:10274000A06384F8443084F84530A5B9236973B197
:1027500004F1100000F0F6FF48B14FF0E0234FF015
:102760008052C3F8042DBFF34F8FBFF36F8F01F07A
:1027700029FC012038BD04F11000FFF7F7FE04F139
:102780002400FFF7F3FEF2E713B51C4640B94FF003
:10279000500383F31188BFF36F8FBFF34F8FFEE7B2
:1027A00043B94FF0500383F31188BFF36F8FBFF32A
:1027B0004F8FFEE74AB191B94FF0500383F3118870
:1027C000BFF36F8FBFF34F8FFEE741B14FF0500360
:1027D00083F31188BFF36F8FBFF34F8FFEE748235A
:1027E0000193019B482B08D04FF0500383F31188CD
:1027F000BFF36F8FBFF34F8FFEE70123002908BFA0
:102800002246C4E90F0184F846302260194620466A
:10281000FFF77BFF204602B010BD70B50D4606469F
:1028200040B94FF0500383F31188BFF36F8FBFF3AC
:102830004F8FFEE74843483001F06EFA044660B11E
:10284000002380F8463055B100F14803C4E90F6514
:10285000236001212046FFF758FF204670BD034644
:10286000F4E72DE9F04385B0884601921F460446FF
:1028700040B94FF0500383F31188BFF36F8FBFF35C
:102880004F8FFEE751B9036C43B14FF0500383F310
:102890001188BFF36F8FBFF34F8FFEE7022F0BD16D
:1028A000E36B012B08D04FF0500383F31188BFF383
:1028B0006F8FBFF34F8FFEE700F0D6FF064650B98B
:1028C000019B4BB14FF0500383F31188BFF36F8F1F
:1028D000BFF34F8FFEE700264FF0000937E0019D60
:1028E0001DB901F06FFB002052E016B902A800F0FC
:1028F0006DFF01F067FB00F095FD01F043FB94F8DC
:102900004430FF2B08BF84F8449094F84530FF2BE7
:1029100008BF84F8459001F055FB01A902A800F01A
:1029200061FF00284AD101F02DFBA26BE36B9A42B4
:1029300031D101F047FB019904F1100000F0E8FEED
:102940002046FFF7AAFE00F00DFE60B3012601F05D
:1029500019FBA26BE36B9A4201D3022FBFD13A4617
:1029600041462046FFF74EFE636A1BB104F1240086
:1029700000F0E8FE48B14FF0E0234FF08052C3F87A
:10298000042DBFF34F8FBFF36F8F01F01BFB0120AE
:1029900005B0BDE8F08301F015FB2046FFF77DFE92
:1029A00000F0E0FDD2E74FF0E0234FF08052C3F893
:1029B000042DBFF34F8FBFF36F8FC7E72046FFF79C
:1029C0006CFE00F0CFFD8EE713B500220B460090A1
:1029D00011460120FFF7D8FE044638B10023C0E9B4
:1029E0000033C3601A461946FFF73BFF204602B08A
:1029F00010BD38B5482001F08FF9044688B1002594
:102A00000121C0E90F1580F846500060FFF77DFEF8
:102A1000C4E90055E5602B462A4629462046FFF7C3
:102A200020FF204638BD2DE9F843894690461F46D1
:102A3000044640B94FF0500383F31188BFF36F8F02
:102A4000BFF34F8FFEE751B9036C43B14FF0500312
:102A500083F31188BFF36F8FBFF34F8FFEE7022F11
:102A60000BD1E36B012B08D04FF0500383F3118897
:102A7000BFF36F8FBFF34F8FFEE701F099FBEFF3CA
:102A800011864FF0500383F31188BFF36F8FBFF3AC
:102A90004F8FA26BE36B9A4201D3022F22D194F89D
:102AA00045503A466DB249462046FFF7ABFD6B1CD8
:102AB00013D1636A0BB901200BE004F1240000F08C
:102AC00041FE0028F7D0B8F1000FF4D00120C8F87B
:102AD000000086F31188BDE8F88301356DB284F8F3
:102AE0004550E8E70020F4E770B50D46044640B9CC
:102AF0004FF0500383F31188BFF36F8FBFF34F8FF5
:102B0000FEE7036C43B14FF0500383F31188BFF32A
:102B10006F8FBFF34F8FFEE7036853B9436843B12C
:102B20004FF0500383F31188BFF36F8FBFF34F8FC4
:102B3000FEE701F03DFBEFF311864FF0500383F306
:102B40001188BFF36F8FBFF34F8FA26BE36B93427C
:102B50001CD994F845100132FF294BB2A26310D161
:102B6000636A0BB9012009E004F1240000F0EAFDDA
:102B70000028F7D0002DF5D00120286086F31188B9
:102B800070BD01335BB284F84530EBE70020F5E718
:102B90002DE9FF410F460192044640B94FF0500322
:102BA00083F31188BFF36F8FBFF34F8FFEE751B9E7
:102BB000036C43B14FF0500383F31188BFF36F8F61
:102BC000BFF34F8FFEE700F04FFE064650B9019B62
:102BD0004BB14FF0500383F31188BFF36F8FBFF3F6
:102BE0004F8FFEE700264FF000083DE0019D1DB924
:102BF00001F0E8F9002056E016B902A800F0E6FD61
:102C000001F0E0F900F00EFC01F0BCF994F844305A
:102C1000FF2B08BF84F8448094F84530FF2B08BF91
:102C200084F8458001F0CEF901A902A800F0DAFD90
:102C3000002841D12046FFF7DAFCB8B3019904F12E
:102C4000240000F065FD2046FFF727FD00F08AFC18
:102C500048B94FF0E0234FF08052C3F8042DBFF382
:102C60004F8FBFF36F8F012601F08CF9A56B002DFC
:102C7000BCD039462046013DFFF7F9FCA563236926
:102C800073B104F1100000F05DFD48B14FF0E02396
:102C90004FF08052C3F8042DBFF34F8FBFF36F8FF7
:102CA00001F090F9012004B0BDE8F0812046FFF763
:102CB000F4FC00F057FCD6E72046FFF7EEFC00F0EE
:102CC00051FC2046FFF793FC0028CCD092E7F0B5EA
:102CD00085B00446019140B94FF0500383F3118849
:102CE000BFF36F8FBFF34F8FFEE7056C45B14FF019
:102CF000500383F31188BFF36F8FBFF34F8FFEE74D
:102D000000F0B2FD064650B9019B5BB14FF0500395
:102D100083F31188BFF36F8FBFF34F8FFEE72E460B
:102D2000002753E00546FBE7019B63B945B14FF02F
:102D3000500383F31188BFF36F8FBFF34F8FFEE70C
:102D400001F040F962E016B902A800F03FFD01F081
:102D500039F900F067FB01F015F994F84430FF2BC6
:102D600008BF84F8447094F84530FF2B08BF84F8FE
:102D7000457001F027F901A902A800F033FD0028F1
:102D80004DD12046FFF733FC002842D023683BB9E1
:102D900001F0F8F8606800F077FD054601F012F9DF
:102DA000019904F1240000F0B3FC2046FFF775FC04
:102DB00000F0D8FB48B94FF0E0234FF08052C3F841
:102DC000042DBFF34F8FBFF36F8F012601F0DAF8A8
:102DD000A36B002BA8D0013BA363236813B900F0B9
:102DE00055FE6060236973B104F1100000F0AAFC85
:102DF00048B14FF0E0234FF08052C3F8042DBFF3E9
:102E00004F8FBFF36F8F01F0DDF80125284605B025
:102E1000F0BD2046FFF741FC00F0A4FBD5E72046BB
:102E2000FFF73BFC00F09EFB2046FFF7E0FB00288D
:102E3000CBD0002DEAD001F0A5F8616A19B1236B5F
:102E40001968C1F10701606800F0C4FD002501F0B8
:102E5000B9F8DBE72DE9F84389469046054640B9C5
:102E60004FF0500383F31188BFF36F8FBFF34F8F81
:102E7000FEE751B9036C43B14FF0500383F311885F
:102E8000BFF36F8FBFF34F8FFEE701F091F9EFF3C0
:102E900011874FF0500383F31188BFF36F8FBFF397
:102EA0004F8FAC6B1CB395F84460494676B2284608
:102EB000FFF7DDFB013C731CAC6313D12B690BB92D
:102EC00001200BE005F1100000F03CFC0028F7D0D9
:102ED000B8F1000FF4D00120C8F8000087F3118882
:102EE000BDE8F883013676B285F84460E8E720460D
:102EF000F4E7000010B5084A002302EBC3014C6858
:102F0000844204D1002042F83300486010BD0133F0
:102F1000082BF2D1FAE700BF901E002010B504463E
:102F200040B94FF0500383F31188BFF36F8FBFF3A5
:102F30004F8FFEE7FFF7DEFF94F8463023B92046B7
:102F4000BDE8104000F07ABF10BD00002DE9F0414F
:102F5000044601F017F82F4B2F4E1A682F4F0132FD
:102F60001A603568002D4AD134601B68012B1FD1CF
:102F7000B84640460135FFF7F9FA072D08F1140865
:102F8000F7D1DFF8C080264D4046FFF7EFFA28461C
:102F9000FFF7ECFA2348FFF7E9FA2348FFF7E6FAD0
:102FA0002248FFF7E3FA224BC3F80080214B1D6053
:102FB000214A22491368086801331360E26A012339
:102FC0009340034314200B6000FB0270211DFFF7A8
:102FD000DBFA00F0F7FF1A4B1B6873B13368DA6A4B
:102FE000E36A9A4209D24FF0E0234FF08052C3F8CF
:102FF000042DBFF34F8FBFF36F8FBDE8F081104BEF
:103000001B68002BD4D13368DA6AE36A9A4298BF0E
:103010003460CDE7681F0020D01E0020DC1E002099
:10302000941F0020B01F0020DC1F0020C81F0020BC
:10303000D41E0020D81E0020781F00207C1F0020F6
:10304000C41F0020801F0020F8B51A4B1A4E1D68BF
:103050000446306804300F46FFF7B9FA40B93268C9
:103060001649D06A0B680122824023EA02030B60F2
:10307000631C07D137B131681148BDE8F84004310D
:10308000FFF782BA33682C195C6007D30D4B1868C0
:103090003168BDE8F8400431FFF782BA0A4B18687E
:1030A00031680431FFF77CFA084B1A68A24288BFE6
:1030B0001C60F8BDF01F0020D01E00207C1F0020E7
:1030C000C81F0020D81E0020D41E0020A81F0020EA
:1030D000064A13681968064B19B94FF0FF321A6097
:1030E00070471268D268D2685268F8E7D41E002090
:1030F000A81F002010B590F8553004463BB9006B6E
:1031000000F09CFE2046BDE8104000F097BE012B69
:10311000F9D0022B08D04FF0500383F31188BFF38E
:103120006F8FBFF34F8FFEE710BD000080B5134CCB
:10313000134F144D236873B9134B1B68012BF8D937
:103140004FF0E0234FF08052C3F8042DBFF34F8FB0
:10315000BFF36F8FEDE700F015FFFB68DE68301DF1
:10316000FFF735FA2B68013B2B602368013B236096
:1031700000F028FF3046FFF7BDFFDBE76C1F0020A3
:10318000DC1F0020681F0020DC1E00202DE9F74313
:10319000DDE90B84164606F180461A46236B013E94
:1031A00003EB860626F0070607464B1E666404F10D
:1031B00034000F3113F8015F00F8015B0DB18B4251
:1031C000F8D10A9D0192062D28BF06254FF000096F
:1031D000C4E91259E562201D84F84390FFF7D1F944
:1031E000C5F1070504F11800FFF7CBF9C4F85090BA
:1031F000019A2461A561646284F85490394630468E
:1032000000F092FE2060B8F1000F01D0C8F8004035
:1032100003B0BDE8F08370B586B0DDE90B5445B965
:103220004FF0500383F31188BFF36F8FBFF34F8FBD
:10323000FEE744B94FF0500383F31188BFF36F8F5B
:10324000BFF34F8FFEE758260596059E582E08D0EF
:103250004FF0500383F31188BFF36F8FBFF34F8F8D
:10326000FEE72563022584F8555004AD01950A9DBB
:1032700002940095FFF78AFF2046FFF767FE049847
:1032800006B070BD2DE9F043074685B09000884632
:103290001646994600F040FD0546E8B1582000F07A
:1032A0003BFD0446A8B1002380F855300D9B056313
:1032B00001930C9B0290009332464B4641463846A0
:1032C000FFF764FF2046FFF741FE012005B0BDE88F
:1032D000F083284600F0B2FD4FF0FF30F6E7000023
:1032E000F8B504462A4D00F04DFE04B92C68261DA1
:1032F0003046FFF76CF960B9E76A264B1420784333
:103300001B5833B9244901220B68BA4023EA02034F
:103310000B60A36A1BB104F11800FFF758F91F4AAC
:103320001368013313602B68A3421BD11C4831463C
:10333000FFF72AF91B4A13680133136000F042FEBD
:10334000194B1B6813B32B68A3421FD1174B1B6883
:1033500093B14FF0500383F31188BFF36F8FBFF326
:103360004F8FFEE7124A13682046013B1360FFF7B8
:10337000C1FEFFF7ADFEE1E74FF0E0234FF08052D2
:10338000C3F8042DBFF34F8FBFF36F8FF8BD00BF9D
:10339000D01E0020DC1E00207C1F0020781F002093
:1033A000DC1F00206C1F0020C41F0020741F0020A1
:1033B000681F002010B588B0002407AA06A905A838
:1033C000CDE90544FDF7DAFB059B0293069B079ABE
:1033D0000F491048CDE900432346FFF71CFFA8B171
:1033E0004FF0500383F31188BFF36F8FBFF34F8FFC
:1033F000094B4FF0FF321A60084B01221A60084B4C
:103400001C6008B0BDE8104000F04CBE08B010BD14
:10341000DE4500082D310008A81F0020C41F002031
:10342000F01F0020024A136801331360704700BF89
:10343000741F0020404B1B682DE9F74F002B74D1FF
:103440003E4B1D6801351D60BDB93D4B1A681268C1
:1034500042B14FF0500383F31188BFF36F8FBFF376
:103460004F8FFEE7374A1968106818601160364AB6
:10347000136801331360FFF72BFE344E344F33686B
:10348000DFF8D880AB424FF0000411D9D8F80030F3
:10349000DB6A14225343FB58022B28BF01242D4B17
:1034A0001B68002B0CBF2046012003B0BDE8F08F45
:1034B000DFF88CA0DFF8A890DAF800301B681BB9A1
:1034C0004FF0FF333360E1E7DAF80030DB68D3F820
:1034D0000CB0DBF80420954201D23260D6E70BF144
:1034E000040108460191FFF772F8DBF828200199E2
:1034F00022B10BF11800FFF76AF80199DBF82C00F4
:10350000D9F80030012282401A43C9F80020142261
:1035100002FB0070FFF738F8D8F80010DBF82C2019
:10352000CB6A9A4228BF0124C6E70B4A13680133CD
:1035300013600024B3E700BF741F0020F01F0020B9
:10354000D41E0020D81E0020AC1F0020A81F002081
:10355000DC1E0020F41F0020701F0020D01E002061
:103560007C1F00202DE9F341324C236843B94FF012
:10357000500383F31188BFF36F8FBFF34F8FFEE7C4
:1035800000F000FD2368013B2360246834B100246F
:1035900000F018FD204602B0BDE8F081264B1B6804
:1035A000002BF4D0254D264EDFF8A4801FE0EB68F9
:1035B000DC6804F11800FFF70AF8211D08460191A4
:1035C000FFF705F8E26A30680199012707FA02F36C
:1035D0000343142000FB02803360FEF7D5FF194B34
:1035E000E26A1B68DB6A9A4201D3174B1F602B68A3
:1035F000002BDCD10CB1FFF76BFD144D2C6844B1EE
:10360000114E0127FFF716FF00B13760013CF9D1D9
:103610002C600D4B1B68002BB9D04FF0E0234FF00E
:103620008052C3F8042DBFF34F8FBFF36F8F012477
:10363000AEE700BF741F0020681F0020B01F0020ED
:103640007C1F0020D01E0020F41F0020701F0020CF
:10365000DC1E002008B550B94FF0E0234FF0805237
:10366000C3F8042DBFF34F8FBFF36F8F08BD0A4B14
:10367000196841B14FF0500383F31188BFF36F8F86
:10368000BFF34F8FFEE7FFF7CDFEFFF7DDFCFFF73F
:1036900069FF0028E0D0E9E7741F0020174B1A6883
:1036A000174B10B512B101221A6010BD1A60154BEC
:1036B0001A68B2FA82F2D2B2C2F11F02142312497E
:1036C0005343C818CC5844B94FF0500383F31188C2
:1036D000BFF36F8FBFF34F8FFEE744680833646812
:1036E00044600B449C4204BF63684360142303FBA3
:1036F00002125368DA68054BD6E700BF741F00203A
:10370000F41F00207C1F0020DC1E0020D01E0020A3
:1037100010B50C4640B94FF0500383F31188BFF346
:103720006F8FBFF34F8FFEE7054B19681831FEF717
:1037300037FF20460121BDE81040FFF785BC00BFE0
:10374000D01E0020C36837B5DC6844B94FF0500381
:1037500083F31188BFF36F8FBFF34F8FFEE704F140
:10376000180108460191FEF732FF124B01991B68C0
:10377000F3B9211D08460191FEF729FF0E48E26AC0
:1037800005680199012393402B4303600B4B1420E0
:1037900000FB0230FEF7F8FE094BE26A1B68DB6AA9
:1037A0009A4285BF074B01200020186003B030BD4E
:1037B0000548EFE7741F00207C1F0020DC1E00205E
:1037C000D01E0020F41F0020B01F0020034B1B68F8
:1037D0000360034B1B684360704700BFAC1F0020B1
:1037E000F01F002070B50C46054640B94FF050035D
:1037F00083F31188BFF36F8FBFF34F8FFEE741B99B
:103800004FF0500383F31188BFF36F8FBFF34F8FD7
:10381000FEE700F0B7FB0F4B196823685A1C10D065
:103820000D482E6800686A68864201D08A420FD926
:10383000881A83420AD95B1A134423602846FFF78B
:10384000C5FF002400F0BEFB204670BD00232360AE
:103850000124F7E7F01F0020AC1F0020014B0122DC
:103860001A607047F41F0020054B1B6833B1054BED
:103870001B68002B0CBF02200020704701207047FE
:10388000C41F0020741F0020F7B5044650B3254D17
:10389000C36A2A68D26A93423BD28269224F002AC5
:1038A000A1BF2A68D26AC2F1070282611426426966
:1038B00006FB03739A4217D1011D08460191FEF7DA
:1038C00086FE1A4B0199A8B12A681D68D26AE26285
:1038D000012404FA02F028431860142000FB02704F
:1038E000FEF752FE204603E02B68DB6AC36201202C
:1038F00003B0F0BDD4F82CC006FB0CF6BA59002A70
:10390000E2D11A68012000FA0CF022EA00021A60E3
:10391000DAE72B68806CDC6AA0422CBF0020012013
:10392000E6E700BFD01E0020DC1E00207C1F002028
:10393000F7B5044610B9002003B0F0BD224B1B6858
:10394000834208D04FF0500383F31188BFF36F8F89
:10395000BFF34F8FFEE7DB6C43B94FF0500383F3A7
:103960001188BFF36F8FBFF34F8FFEE7C16A826C80
:10397000013B9142C364DED0002BDCD1011D08461F
:103980000191FEF724FE114F114A019950B9E06AE6
:1039900014264643BB592BB913680125854023EAF9
:1039A00005031360A36CE362C3F10700A061106814
:1039B000012404FA03F50543142000FB037015608D
:1039C000FEF7E2FD2046B7E7D01E0020DC1E0020F7
:1039D0007C1F002073B5044600284FD0C26C42B94A
:1039E0004FF0500383F31188BFF36F8FBFF34F8FF6
:1039F000FEE7836C994238BF1946C36A8B423DD0BB
:103A0000012A3BD11E4A1268824208D14FF050036E
:103A100083F31188BFF36F8FBFF34F8FFEE7826987
:103A2000184EC162002A4FF014054269A8BFC1F1C7
:103A3000070105FB0363A8BF81619A421ED1011DE6
:103A400008460191FEF7C3FDE26A01990E4C40B9A8
:103A5000554373592BB923680120904023EA000392
:103A600023602068012393400343142000FB02607D
:103A7000236002B0BDE87040FEF786BD02B070BDA5
:103A8000D01E0020DC1E00207C1F0020044B1A6882
:103A90001AB11968CA6C0132CA641868704700BF4D
:103AA000D01E002008B5FFF785FC002008BD70B5CA
:103AB000054646692A69B5F908400B4686B0D0E943
:103AC000001076B1AD6965B1842C14BF03340024B5
:103AD000CDE901650094FFF79EFB0590059806B0BF
:103AE00070BD842C14BF0334002405ADCDE900451E
:103AF00092B2FFF7C7FB0128F0D00020EFE708B52E
:103B0000FFF7EEFB002008BD4FF0E0234FF080529E
:103B1000C3F8042DBFF34F8FBFF36F8F00207047A2
:103B200008B5012838BF0120FFF794FD002008BD2B
:103B30004168012009B1FEF747BFFEF75ABF13B530
:103B400000240194F0B1EFF30583ABB101AA214643
:103B5000FFF780F9012813D1019B13B9002002B0AF
:103B600010BD4FF0E0234FF08052C3F8042DBFF397
:103B70004F8FBFF36F8FF1E7FFF7A9F80128EDD062
:103B8000FF20ECE78020EAE713B500240194EFF36F
:103B90000583A3B101A9FEF7A7FF012815D1019B59
:103BA00013B9002002B010BD4FF0E0234FF0805257
:103BB000C3F8042DBFF34F8FBFF36F8FF1E71A46A1
:103BC0001946FEF74EFE0128EBD0FF20EAE710B5BC
:103BD000EFF305841CB9FFF7A1F9204610BD82243C
:103BE000FBE7FFF7F4BF13B5034607C80AB1DB686C
:103BF0002BB9002202B0BDE81040FEF70EBE002433
:103C00000094FEF7C1FD02B010BD1FB50024019164
:103C10000394EFF30583B3B1234603AA01A9FEF78A
:103C200002FF012817D1039B13B9002004B010BD77
:103C30004FF0E0234FF08052C3F8042DBFF34F8FB5
:103C4000BFF36F8FF1E7012A38BF012201A9FEF708
:103C500008FE0128E9D0FF20E8E77FB500230446ED
:103C6000164608460391029301AD11B980230193D2
:103C700018E00093EFF30583DBB16A4602A9FFF772
:103C8000E9F801280CBF102300230193009B4BB1DE
:103C90004FF0E0234FF08052C3F8042DBFF34F8F55
:103CA000BFF36F8F95E8070084E80700204604B053
:103CB00070BD02A9FEF76CFF012801D11023D6E7E1
:103CC000002E18BF40260196ECE7FFF780BF0000EA
:103CD00010B50F4B1A461B688342FBD35468111969
:103CE000884201BF416810460919516044680119B2
:103CF0008B4207D1074909688B421FBF59681B686F
:103D0000091941609042036018BF106010BD00BFE8
:103D1000086B0020F81F00202DE9F0410446FFF752
:103D200081FB4048404D03680BBB40494E071FBF15
:103D3000CB1D23F0070301F59642D21A14BF194692
:103D40004FF496420A443A4E083A22F00702002302
:103D500073603160C2E90033531AC1E90023026085
:103D6000344A1360344A13604FF000432B602F68CD
:103D7000274251D1002C42D004F1080361071CBF37
:103D800023F007030833002B46D02B4C26689E42B5
:103D900042D3274A15686968994204D2D5F800C011
:103DA000BCF1000F15D10068A84235D0C91A2868A7
:103DB000D2F800801060102912D9E81842070BD001
:103DC0004FF0500383F31188BFF36F8FBFF34F8F12
:103DD000FEE72A466546DEE741606B60FFF778FF45
:103DE00014496B680868F61A1F4386424FF00003B7
:103DF000266038BF0E6008F108046F602B60FFF783
:103E0000B1FB63070AD04FF0500383F31188BFF36F
:103E10006F8FBFF34F8FFEE70024F0E72046BDE829
:103E2000F08100BFF81F0020FC6A0020FC1F00206A
:103E3000086B0020046B0020006B002010B50446C6
:103E400070B3184A50F8043C1268134208D14FF07E
:103E5000500383F31188BFF36F8FBFF34F8FFEE7DB
:103E600050F8081C41B14FF0500383F31188BFF3A1
:103E70006F8FBFF34F8FFEE723EA020340F8043C45
:103E8000FFF7D0FA084A54F8043C1168A4F108007E
:103E90000B441360FFF71CFFBDE81040FFF762BB47
:103EA00010BD00BFFC6A0020006B002008480068BD
:103EB000006880F308884FF0000080F3148862B631
:103EC00061B6BFF34F8FBFF36F8F00DF00BF0000FD
:103ED00008ED00E0DFF80C00016841F470010160BA
:103EE0007047000088ED00E082B0002301930D4B85
:103EF0001B68013308D04FF0500383F31188BFF3E0
:103F00006F8FBFF34F8FFEE74FF0500383F311889D
:103F1000BFF36F8FBFF34F8F019B002BFCD002B01C
:103F2000704700BF0C0000204FF0807340F8043C45
:103F3000074B40F80C3C21F001016FF0020340F800
:103F4000081C40F8202C40F8243C4438704700BF3F
:103F5000E93E000800000000000000000000000032
:103F6000074B19680868B0E8F04F80F30988BFF381
:103F70006F8F4FF0000080F311887047AFF300801F
:103F8000D01E00204FF0500383F31188BFF36F8FD2
:103F9000BFF34F8F0A4A13680133012B13600ED110
:103FA0004FF0E023D3F8043DDBB243B14FF05003B0
:103FB00083F31188BFF36F8FBFF34F8FFEE7704716
:103FC0000C000020084A136843B94FF0500383F3F4
:103FD0001188BFF36F8FBFF34F8FFEE7013B136074
:103FE0000BB983F3118870470C000020000000001B
:103FF000EFF30980BFF36F8F154B1A681EF0100F97
:1040000008BF20ED108A20E9F04F10602DE909006B
:104010004FF0500080F31188BFF34F8FBFF36F8FC5
:10402000FFF73CFB4FF0000080F3118809BC1968D2
:104030000868B0E8F04F1EF0100F08BFB0EC108A0F
:1040400080F30988BFF36F8F704700BFAFF3008024
:10405000D01E002008B54FF0500383F31188BFF342
:104060006F8FBFF34F8FFFF7E5F928B14FF0E023D3
:104070004FF08052C3F8042D002383F3118808BD4C
:104080004FF0E022002313619361054B4FF47A71E6
:104090001B68B3FBF1F3013B5361072313617047C6
:1040A000080000204FF0E02337B5D3F8001D3A4A4E
:1040B000914208D14FF0500383F31188BFF36F8F03
:1040C000BFF34F8FFEE7D3F8002D344B9A4208D14F
:1040D0004FF0500383F31188BFF36F8FBFF34F8FFF
:1040E000FEE72F4B1A78D2B20192FF221A701B788A
:1040F0002C4ADBB28DF803309DF8033003F05003F7
:104100001370294A0723136000219DF8030000065D
:1041100003F1FF340CD411B1032B136011D04FF015
:10412000500383F31188BFF36F8FBFF34F8FFEE708
:104130009DF803305B00DBB28DF80330012123468C
:10414000E3E74FF440731360019B154A4FF0E024FE
:10415000DBB21370D4F8203D43F47003C4F8203D63
:10416000D4F8203D43F07043C4F8203DFFF788FFAA
:104170000E4B00251D60FFF7ADFED4F8343F43F031
:104180004043C4F8343FFFF791FEFFF787FAFFF78B
:10419000ABFE284603B030BD71C20F4170C20F4163
:1041A00000E400E0106B0020146B00200C000020E5
:1041B000EFF305830F2B0ED9114A9B5C114A12783D
:1041C0009A4208D94FF0500383F31188BFF36F8FE1
:1041D000BFF34F8FFEE74FF0E0230B4AD3F80C3DBF
:1041E000126803F4E063934208D94FF0500383F35D
:1041F0001188BFF36F8FBFF34F8FFEE7704700BF8B
:10420000F0E300E0106B0020146B0020DFF834D0E6
:10421000FEF7A2F90C480D490D4A002302E0D458DC
:10422000C4500433C4188C42F9D30A4A0A4C002300
:1042300001E013600432A242FBD3FBF7D1FFFCF78D
:10424000DDFBFEE700000120000000201000002040
:10425000EC45000810000020186B0020FEE70A441F
:10426000914200F1FF3300D1704710B511F8014BB6
:1042700003F8014F9142F9D110BD0000F8B500BF1D
:10428000F8BC08BC9E467047F8B500BFF8BC08BC37
:044290009E4670478F
:1042940098450008C102000800000000000000006A
:1042A4000004000000000000000000005175657566
:1042B4006552656369657665720051756575655407
:1042C40072616E736D69747465720053656D6170AB
:1042D400686F726554687265616400466F726365E5
:1042E4005377697463684E6F726D616C00000000EF
:1042F40001000000040000000000000000000000B5
:104304000000000000000000DF420008390200083D
:104314000000000000000000800000000000000019
:1043240000000000B042000845070008000000003B
:1043340000000000800000000000000000000000F9
:10434400BE420008D506000800000000000000007E
:10435400800000000000000000000000CF420008C0
:10436400C1070008000000000000000080000000F9
:104374000000000000000000E442000829080008D2
:1043840000000000000000008000000000000000A9
:10439400000000000000C1C081C1400101C3C0038E
:1043A400800241C201C6C006800741C70005C1C5DD
:1043B40081C4400401CCC00C800D41CD000FC1CF9D
:1043C40081CE400E000AC1CA81CB400B01C9C0098D
:1043D400800841C801D8C018801941D9001BC1DB2D
:1043E40081DA401A001EC1DE81DF401F01DDC01DDD
:1043F400801C41DC0014C1D481D5401501D7C017FD
:10440400801641D601D2C012801341D30011C1D10C
:1044140081D0401001F0C030803141F10033C1F34C
:1044240081F240320036C1F681F7403701F5C035DC
:10443400803441F4003CC1FC81FD403D01FFC03F9C
:10444400803E41FE01FAC03A803B41FB0039C1F98C
:1044540081F840380028C1E881E9402901EBC02BEC
:10446400802A41EA01EEC02E802F41EF002DC1EDDC
:1044740081EC402C01E4C024802541E50027C1E7FC
:1044840081E640260022C1E281E3402301E1C0210C
:10449400802041E001A0C060806141A10063C1A30C
:1044A40081A240620066C1A681A7406701A5C065DC
:1044B400806441A4006CC1AC81AD406D01AFC06F9C
:1044C400806E41AE01AAC06A806B41AB0069C1A98C
:1044D40081A840680078C1B881B9407901BBC07B2C
:1044E400807A41BA01BEC07E807F41BF007DC1BDDC
:1044F40081BC407C01B4C074807541B50077C1B7FC
:1045040081B640760072C1B281B3407301B1C0710B
:10451400807041B00050C190819140510193C053CB
:10452400805241920196C056805741970055C195DB
:1045340081944054019CC05C805D419D005FC19F9B
:10454400819E405E005AC19A819B405B0199C0598B
:10455400805841980188C04880494189004BC18BEB
:10456400818A404A004EC18E818F404F018DC04DDB
:10457400804C418C0044C184818540450187C047FB
:10458400804641860182C042804341830041C1810B
:10459400818040404D61696E5468726561640002B7
:1045A400030405060708090A0B0C0D0E0F10100171
:1045B40002030405060708090A0B0C0D0E0F10046C
:1045C40008020000000000000000010203040607C6
:1045D4000809000000000102030449444C4500009E
:0445E400C501000805
:0445E800A101000825
:1045EC00010000001000000000127A00AAAAAAAA7A
:040000050800420DA0
:00000001FF
